{
  "contractName": "MainContract",
  "abi": [
    {
      "inputs": [
        {
          "internalType": "uint256",
          "name": "",
          "type": "uint256"
        }
      ],
      "name": "Elections",
      "outputs": [
        {
          "internalType": "address",
          "name": "",
          "type": "address"
        }
      ],
      "stateMutability": "view",
      "type": "function",
      "constant": true
    },
    {
      "inputs": [],
      "name": "electionId",
      "outputs": [
        {
          "internalType": "uint256",
          "name": "",
          "type": "uint256"
        }
      ],
      "stateMutability": "view",
      "type": "function",
      "constant": true
    },
    {
      "inputs": [
        {
          "internalType": "string[]",
          "name": "_nda",
          "type": "string[]"
        },
        {
          "internalType": "string[]",
          "name": "_candidates",
          "type": "string[]"
        }
      ],
      "name": "createElection",
      "outputs": [],
      "stateMutability": "nonpayable",
      "type": "function"
    }
  ],
  "bytecode": "0x60806040526000805534801561001457600080fd5b5061178d806100246000396000f3fe60806040523480156200001157600080fd5b5060043610620000465760003560e01c8063051364d4146200004b5780631e9598e2146200006d5780633b26ad7f14620000a3575b600080fd5b62000055620000c3565b604051620000649190620004c6565b60405180910390f35b6200008b600480360381019062000085919062000348565b620000c9565b6040516200009a91906200046e565b60405180910390f35b620000c16004803603810190620000bb9190620002d5565b620000fc565b005b60005481565b60016020528060005260406000206000915054906101000a900473ffffffffffffffffffffffffffffffffffffffff1681565b600082826040516200010e90620001ac565b6200011b9291906200048b565b604051809103906000f08015801562000138573d6000803e3d6000fd5b50905080600160008054815260200190815260200160002060006101000a81548173ffffffffffffffffffffffffffffffffffffffff021916908373ffffffffffffffffffffffffffffffffffffffff160217905550600080815480929190620001a2906200067f565b9190505550505050565b611001806200075783390190565b6000620001d1620001cb846200050c565b620004e3565b9050808382526020820190508260005b85811015620002155781358501620001fa888262000291565b845260208401935060208301925050600181019050620001e1565b5050509392505050565b60006200023662000230846200053b565b620004e3565b9050828152602081018484840111156200024f57600080fd5b6200025c84828562000604565b509392505050565b600082601f8301126200027657600080fd5b813562000288848260208601620001ba565b91505092915050565b600082601f830112620002a357600080fd5b8135620002b58482602086016200021f565b91505092915050565b600081359050620002cf816200073c565b92915050565b60008060408385031215620002e957600080fd5b600083013567ffffffffffffffff8111156200030457600080fd5b620003128582860162000264565b925050602083013567ffffffffffffffff8111156200033057600080fd5b6200033e8582860162000264565b9150509250929050565b6000602082840312156200035b57600080fd5b60006200036b84828501620002be565b91505092915050565b60006200038283836200041c565b905092915050565b6200039581620005c6565b82525050565b6000620003a88262000581565b620003b48185620005a4565b935083602082028501620003c88562000571565b8060005b858110156200040a5784840389528151620003e8858262000374565b9450620003f58362000597565b925060208a01995050600181019050620003cc565b50829750879550505050505092915050565b600062000429826200058c565b620004358185620005b5565b93506200044781856020860162000613565b62000452816200072b565b840191505092915050565b6200046881620005fa565b82525050565b60006020820190506200048560008301846200038a565b92915050565b60006040820190508181036000830152620004a781856200039b565b90508181036020830152620004bd81846200039b565b90509392505050565b6000602082019050620004dd60008301846200045d565b92915050565b6000620004ef62000502565b9050620004fd828262000649565b919050565b6000604051905090565b600067ffffffffffffffff8211156200052a5762000529620006fc565b5b602082029050602081019050919050565b600067ffffffffffffffff821115620005595762000558620006fc565b5b62000564826200072b565b9050602081019050919050565b6000819050602082019050919050565b600081519050919050565b600081519050919050565b6000602082019050919050565b600082825260208201905092915050565b600082825260208201905092915050565b6000620005d382620005da565b9050919050565b600073ffffffffffffffffffffffffffffffffffffffff82169050919050565b6000819050919050565b82818337600083830152505050565b60005b838110156200063357808201518184015260208101905062000616565b8381111562000643576000848401525b50505050565b62000654826200072b565b810181811067ffffffffffffffff82111715620006765762000675620006fc565b5b80604052505050565b60006200068c82620005fa565b91507fffffffffffffffffffffffffffffffffffffffffffffffffffffffffffffffff821415620006c257620006c1620006cd565b5b600182019050919050565b7f4e487b7100000000000000000000000000000000000000000000000000000000600052601160045260246000fd5b7f4e487b7100000000000000000000000000000000000000000000000000000000600052604160045260246000fd5b6000601f19601f8301169050919050565b6200074781620005fa565b81146200075357600080fd5b5056fe608060405260006004553480156200001657600080fd5b50604051620010013803806200100183398181016040528101906200003c9190620003f1565b600081511162000083576040517f08c379a00000000000000000000000000000000000000000000000000000000081526004016200007a906200048b565b60405180910390fd5b81600081518110620000be577f4e487b7100000000000000000000000000000000000000000000000000000000600052603260045260246000fd5b602002602001015160009080519060200190620000dd9291906200023d565b508160018151811062000119577f4e487b7100000000000000000000000000000000000000000000000000000000600052603260045260246000fd5b602002602001015160019080519060200190620001389291906200023d565b5060005b8151811015620001ae576200019882828151811062000184577f4e487b7100000000000000000000000000000000000000000000000000000000600052603260045260246000fd5b6020026020010151620001b760201b60201c565b8080620001a590620005f8565b9150506200013c565b50505062000733565b604051806060016040528060045481526020018281526020016000815250600260006004548152602001908152602001600020600082015181600001556020820151816001019080519060200190620002129291906200023d565b5060408201518160020155905050600460008154809291906200023590620005f8565b919050555050565b8280546200024b906200058c565b90600052602060002090601f0160209004810192826200026f5760008555620002bb565b82601f106200028a57805160ff1916838001178555620002bb565b82800160010185558215620002bb579182015b82811115620002ba5782518255916020019190600101906200029d565b5b509050620002ca9190620002ce565b5090565b5b80821115620002e9576000816000905550600101620002cf565b5090565b600062000304620002fe84620004d6565b620004ad565b9050808382526020820190508260005b858110156200034857815185016200032d8882620003c4565b84526020840193506020830192505060018101905062000314565b5050509392505050565b600062000369620003638462000505565b620004ad565b9050828152602081018484840111156200038257600080fd5b6200038f84828562000556565b509392505050565b600082601f830112620003a957600080fd5b8151620003bb848260208601620002ed565b91505092915050565b600082601f830112620003d657600080fd5b8151620003e884826020860162000352565b91505092915050565b600080604083850312156200040557600080fd5b600083015167ffffffffffffffff8111156200042057600080fd5b6200042e8582860162000397565b925050602083015167ffffffffffffffff8111156200044c57600080fd5b6200045a8582860162000397565b9150509250929050565b6000620004736024836200053b565b91506200048082620006e4565b604082019050919050565b60006020820190508181036000830152620004a68162000464565b9050919050565b6000620004b9620004cc565b9050620004c78282620005c2565b919050565b6000604051905090565b600067ffffffffffffffff821115620004f457620004f3620006a4565b5b602082029050602081019050919050565b600067ffffffffffffffff821115620005235762000522620006a4565b5b6200052e82620006d3565b9050602081019050919050565b600082825260208201905092915050565b6000819050919050565b60005b838110156200057657808201518184015260208101905062000559565b8381111562000586576000848401525b50505050565b60006002820490506001821680620005a557607f821691505b60208210811415620005bc57620005bb62000675565b5b50919050565b620005cd82620006d3565b810181811067ffffffffffffffff82111715620005ef57620005ee620006a4565b5b80604052505050565b600062000605826200054c565b91507fffffffffffffffffffffffffffffffffffffffffffffffffffffffffffffffff8214156200063b576200063a62000646565b5b600182019050919050565b7f4e487b7100000000000000000000000000000000000000000000000000000000600052601160045260246000fd5b7f4e487b7100000000000000000000000000000000000000000000000000000000600052602260045260246000fd5b7f4e487b7100000000000000000000000000000000000000000000000000000000600052604160045260246000fd5b6000601f19601f8301169050919050565b7f54686572652073686f756c642062652061746c6561737420312063616e64696460008201527f6174652e00000000000000000000000000000000000000000000000000000000602082015250565b6108be80620007436000396000f3fe608060405234801561001057600080fd5b50600436106100625760003560e01c80630121b93f1461006757806306fdde03146100835780632d35a8a2146100a15780633477ee2e146100bf5780637284e416146100f1578063a3ec138d1461010f575b600080fd5b610081600480360381019061007c91906104eb565b61013f565b005b61008b6102a4565b60405161009891906105cc565b60405180910390f35b6100a9610332565b6040516100b6919061062e565b60405180910390f35b6100d960048036038101906100d491906104eb565b610338565b6040516100e893929190610649565b60405180910390f35b6100f96103ea565b60405161010691906105cc565b60405180910390f35b610129600480360381019061012491906104c2565b610478565b60405161013691906105b1565b60405180910390f35b600360003373ffffffffffffffffffffffffffffffffffffffff1673ffffffffffffffffffffffffffffffffffffffff16815260200190815260200160002060009054906101000a900460ff16156101cc576040517f08c379a00000000000000000000000000000000000000000000000000000000081526004016101c39061060e565b60405180910390fd5b600454811080156101de575060008110155b61021d576040517f08c379a0000000000000000000000000000000000000000000000000000000008152600401610214906105ee565b60405180910390fd5b6001600360003373ffffffffffffffffffffffffffffffffffffffff1673ffffffffffffffffffffffffffffffffffffffff16815260200190815260200160002060006101000a81548160ff02191690831515021790555060026000828152602001908152602001600020600201600081548092919061029c90610750565b919050555050565b600080546102b19061071e565b80601f01602080910402602001604051908101604052809291908181526020018280546102dd9061071e565b801561032a5780601f106102ff5761010080835404028352916020019161032a565b820191906000526020600020905b81548152906001019060200180831161030d57829003601f168201915b505050505081565b60045481565b60026020528060005260406000206000915090508060000154908060010180546103619061071e565b80601f016020809104026020016040519081016040528092919081815260200182805461038d9061071e565b80156103da5780601f106103af576101008083540402835291602001916103da565b820191906000526020600020905b8154815290600101906020018083116103bd57829003601f168201915b5050505050908060020154905083565b600180546103f79061071e565b80601f01602080910402602001604051908101604052809291908181526020018280546104239061071e565b80156104705780601f1061044557610100808354040283529160200191610470565b820191906000526020600020905b81548152906001019060200180831161045357829003601f168201915b505050505081565b60036020528060005260406000206000915054906101000a900460ff1681565b6000813590506104a78161085a565b92915050565b6000813590506104bc81610871565b92915050565b6000602082840312156104d457600080fd5b60006104e284828501610498565b91505092915050565b6000602082840312156104fd57600080fd5b600061050b848285016104ad565b91505092915050565b61051d816106b5565b82525050565b600061052e82610687565b6105388185610692565b93506105488185602086016106eb565b610551816107f7565b840191505092915050565b6000610569601a83610692565b915061057482610808565b602082019050919050565b600061058c601883610692565b915061059782610831565b602082019050919050565b6105ab816106e1565b82525050565b60006020820190506105c66000830184610514565b92915050565b600060208201905081810360008301526105e68184610523565b905092915050565b600060208201905081810360008301526106078161055c565b9050919050565b600060208201905081810360008301526106278161057f565b9050919050565b600060208201905061064360008301846105a2565b92915050565b600060608201905061065e60008301866105a2565b81810360208301526106708185610523565b905061067f60408301846105a2565b949350505050565b600081519050919050565b600082825260208201905092915050565b60006106ae826106c1565b9050919050565b60008115159050919050565b600073ffffffffffffffffffffffffffffffffffffffff82169050919050565b6000819050919050565b60005b838110156107095780820151818401526020810190506106ee565b83811115610718576000848401525b50505050565b6000600282049050600182168061073657607f821691505b6020821081141561074a576107496107c8565b5b50919050565b600061075b826106e1565b91507fffffffffffffffffffffffffffffffffffffffffffffffffffffffffffffffff82141561078e5761078d610799565b5b600182019050919050565b7f4e487b7100000000000000000000000000000000000000000000000000000000600052601160045260246000fd5b7f4e487b7100000000000000000000000000000000000000000000000000000000600052602260045260246000fd5b6000601f19601f8301169050919050565b7f496e76616c69642063616e64696461746520746f20566f746521000000000000600082015250565b7f566f7465722068617320616c726561647920566f746564210000000000000000600082015250565b610863816106a3565b811461086e57600080fd5b50565b61087a816106e1565b811461088557600080fd5b5056fea2646970667358221220dcd3a5d0c267c2affa3bf87b3fa9146645c4ee864bbafce54a905d53a3feef0564736f6c63430008010033a26469706673582212203b456f44464d3f287ed802503ad5e572cdced8af6c63787f2e9369cade195a4864736f6c63430008010033",
  "immutableReferences": {},
  "source": "// SPDX-License-Identifier: UNLICENSED\r\npragma solidity >=0.8.1;\r\n\r\nimport \"./Election.sol\";\r\n\r\ncontract MainContract {\r\n    uint256 public electionId = 0;\r\n    mapping(uint256 => address) public Elections;\r\n\r\n    function createElection(string[] memory _nda, string[] memory _candidates)\r\n        public\r\n    {\r\n        Election election = new Election(_nda, _candidates);\r\n        Elections[electionId] = address(election);\r\n        electionId++;\r\n    }\r\n}\r\n",
  "sourcePath": "C:\\Users\\LeeSeongHyun\\Desktop\\vote-react\\contracts\\MainContract.sol",
  "compiler": {
    "name": "solc",
    "version": "0.8.1+commit.df193b15.Emscripten.clang"
  },
  "schemaVersion": "3.4.5",
  "updatedAt": "2022-02-23T13:10:50.542Z",
  "networkType": "ethereum",
  "devdoc": {
    "kind": "dev",
    "methods": {},
    "version": 1
  },
  "userdoc": {
    "kind": "user",
    "methods": {},
    "version": 1
  }
}